{
  "abi": [
    {
      "inputs": [
        {
          "internalType": "address",
          "name": "_tokenAddress",
          "type": "address"
        },
        {
          "internalType": "address",
          "name": "_nftAddress",
          "type": "address"
        }
      ],
      "stateMutability": "nonpayable",
      "type": "constructor"
    },
    {
      "inputs": [
        {
          "internalType": "uint256",
          "name": "_tokenId",
          "type": "uint256"
        }
      ],
      "name": "buyProduct",
      "outputs": [],
      "stateMutability": "nonpayable",
      "type": "function"
    },
    {
      "inputs": [
        {
          "internalType": "string",
          "name": "_name",
          "type": "string"
        },
        {
          "internalType": "uint256",
          "name": "_price",
          "type": "uint256"
        }
      ],
      "name": "listProduct",
      "outputs": [],
      "stateMutability": "nonpayable",
      "type": "function"
    },
    {
      "inputs": [],
      "name": "nftAddress",
      "outputs": [
        {
          "internalType": "contract IERC721",
          "name": "",
          "type": "address"
        }
      ],
      "stateMutability": "view",
      "type": "function"
    },
    {
      "inputs": [],
      "name": "owner",
      "outputs": [
        {
          "internalType": "address",
          "name": "",
          "type": "address"
        }
      ],
      "stateMutability": "view",
      "type": "function"
    },
    {
      "inputs": [
        {
          "internalType": "uint256",
          "name": "",
          "type": "uint256"
        }
      ],
      "name": "products",
      "outputs": [
        {
          "internalType": "string",
          "name": "name",
          "type": "string"
        },
        {
          "internalType": "uint256",
          "name": "price",
          "type": "uint256"
        },
        {
          "internalType": "bool",
          "name": "ifSold",
          "type": "bool"
        },
        {
          "internalType": "address",
          "name": "ownerOfProduct",
          "type": "address"
        }
      ],
      "stateMutability": "view",
      "type": "function"
    },
    {
      "inputs": [],
      "name": "tokenAddress",
      "outputs": [
        {
          "internalType": "contract IERC20",
          "name": "",
          "type": "address"
        }
      ],
      "stateMutability": "view",
      "type": "function"
    },
    {
      "stateMutability": "payable",
      "type": "receive"
    }
  ],
  "bytecode": {
    "object": "0x608060405234801561001057600080fd5b50604051610b05380380610b0583398101604081905261002f9161008c565b600180546001600160a01b039384166001600160a01b03199182161790915560028054929093169181169190911790915560008054909116331790556100bf565b80516001600160a01b038116811461008757600080fd5b919050565b6000806040838503121561009f57600080fd5b6100a883610070565b91506100b660208401610070565b90509250929050565b610a37806100ce6000396000f3fe6080604052600436106100595760003560e01c80635bf8633a146100655780637acc0b20146100a25780638642269e146100d257806389a1b523146100f45780638da5cb5b146101145780639d76ea581461013457600080fd5b3661006057005b600080fd5b34801561007157600080fd5b50600254610085906001600160a01b031681565b6040516001600160a01b0390911681526020015b60405180910390f35b3480156100ae57600080fd5b506100c26100bd3660046106df565b610154565b60405161009994939291906106f8565b3480156100de57600080fd5b506100f26100ed3660046106df565b610229565b005b34801561010057600080fd5b506100f261010f366004610782565b61060e565b34801561012057600080fd5b50600054610085906001600160a01b031681565b34801561014057600080fd5b50600154610085906001600160a01b031681565b6003818154811061016457600080fd5b906000526020600020906003020160009150905080600001805461018790610837565b80601f01602080910402602001604051908101604052809291908181526020018280546101b390610837565b80156102005780601f106101d557610100808354040283529160200191610200565b820191906000526020600020905b8154815290600101906020018083116101e357829003601f168201915b50505050600183015460029093015491929160ff8116915061010090046001600160a01b031684565b6003610236600183610871565b8154811061024657610246610898565b60009182526020909120600160039092020181015490546040516370a0823160e01b81523360048201526001600160a01b03909116906370a0823190602401602060405180830381865afa1580156102a2573d6000803e3d6000fd5b505050506040513d601f19601f820116820180604052508101906102c691906108ae565b10156103335760405162461bcd60e51b815260206004820152603160248201527f596f7520646f206e6f74206861766520656e6f75676820746f6b656e7320746f60448201527008189d5d081d1a1a5cc81c1c9bd91d58dd607a1b60648201526084015b60405180910390fd5b60008111801561034557506003548111155b6103835760405162461bcd60e51b815260206004820152600f60248201526e125b9d985b1a59081d1bdad95b9259608a1b604482015260640161032a565b6003610390600183610871565b815481106103a0576103a0610898565b600091825260209091206002600390920201015460ff16156103fc5760405162461bcd60e51b8152602060048201526015602482015274141c9bd91d58dd081a185cc81899595b881cdbdb19605a1b604482015260640161032a565b6000546001600160a01b031633036104565760405162461bcd60e51b815260206004820152601f60248201527f596f752063616e6e6f742062757920796f7572206f776e2070726f6475637400604482015260640161032a565b600180546001600160a01b0316906323b872dd903390309060039061047b9087610871565b8154811061048b5761048b610898565b60009182526020909120600160039092020101546040516001600160e01b031960e086901b1681526001600160a01b03938416600482015292909116602483015260448201526064016020604051808303816000875af11580156104f3573d6000803e3d6000fd5b505050506040513d601f19601f8201168201806040525081019061051791906108c7565b50600160036105268284610871565b8154811061053657610536610898565b906000526020600020906003020160020160006101000a81548160ff02191690831515021790555033600360018361056e9190610871565b8154811061057e5761057e610898565b6000918252602090912060039091020160029081018054610100600160a81b0319166101006001600160a01b0394851602179055546040516340c10f1960e01b8152336004820152602481018490529116906340c10f1990604401600060405180830381600087803b1580156105f357600080fd5b505af1158015610607573d6000803e3d6000fd5b5050505050565b6000546001600160a01b0316331461062557600080fd5b60408051608081018252600091810182905283815260208101839052336060820152600380546001810182559281905281519192839291027fc2575a0e9e593c00f959f8c92f12db2869c3395a3b0502d05e2516446f71f85b0190819061068c9082610941565b50602082015160018201556040820151600290910180546060909301516001600160a01b031661010002610100600160a81b0319921515929092166001600160a81b031990931692909217179055505050565b6000602082840312156106f157600080fd5b5035919050565b608081526000855180608084015260005b8181101561072657602081890181015160a0868401015201610709565b50600060a0828501015260a0601f19601f830116840101915050846020830152831515604083015261076360608301846001600160a01b03169052565b95945050505050565b634e487b7160e01b600052604160045260246000fd5b6000806040838503121561079557600080fd5b823567ffffffffffffffff808211156107ad57600080fd5b818501915085601f8301126107c157600080fd5b8135818111156107d3576107d361076c565b604051601f8201601f19908116603f011681019083821181831017156107fb576107fb61076c565b8160405282815288602084870101111561081457600080fd5b826020860160208301376000602093820184015298969091013596505050505050565b600181811c9082168061084b57607f821691505b60208210810361086b57634e487b7160e01b600052602260045260246000fd5b50919050565b8181038181111561089257634e487b7160e01b600052601160045260246000fd5b92915050565b634e487b7160e01b600052603260045260246000fd5b6000602082840312156108c057600080fd5b5051919050565b6000602082840312156108d957600080fd5b815180151581146108e957600080fd5b9392505050565b601f82111561093c576000816000526020600020601f850160051c810160208610156109195750805b601f850160051c820191505b8181101561093857828155600101610925565b5050505b505050565b815167ffffffffffffffff81111561095b5761095b61076c565b61096f816109698454610837565b846108f0565b602080601f8311600181146109a4576000841561098c5750858301515b600019600386901b1c1916600185901b178555610938565b600085815260208120601f198616915b828110156109d3578886015182559484019460019091019084016109b4565b50858210156109f15787850151600019600388901b60f8161c191681555b5050505050600190811b0190555056fea2646970667358221220127b18550caa895f6f9a8e1bc307737b10f80b5f690e1da2e9712ec71766f56e64736f6c63430008160033",
    "linkReferences": {}
  },
  "methodIdentifiers": {
    "buyProduct(uint256)": "8642269e",
    "listProduct(string,uint256)": "89a1b523",
    "nftAddress()": "5bf8633a",
    "owner()": "8da5cb5b",
    "products(uint256)": "7acc0b20",
    "tokenAddress()": "9d76ea58"
  },
  "id": 30
}