{
  "abi": [
    {
      "inputs": [
        {
          "internalType": "uint256",
          "name": "_tokenId",
          "type": "uint256"
        }
      ],
      "name": "TokenIdDoesNotExists",
      "type": "error"
    },
    {
      "anonymous": false,
      "inputs": [
        {
          "indexed": true,
          "internalType": "address",
          "name": "owner",
          "type": "address"
        },
        {
          "indexed": true,
          "internalType": "address",
          "name": "spender",
          "type": "address"
        },
        {
          "indexed": true,
          "internalType": "uint256",
          "name": "id",
          "type": "uint256"
        }
      ],
      "name": "Approval",
      "type": "event"
    },
    {
      "anonymous": false,
      "inputs": [
        {
          "indexed": true,
          "internalType": "address",
          "name": "owner",
          "type": "address"
        },
        {
          "indexed": true,
          "internalType": "address",
          "name": "operator",
          "type": "address"
        },
        {
          "indexed": false,
          "internalType": "bool",
          "name": "approved",
          "type": "bool"
        }
      ],
      "name": "ApprovalForAll",
      "type": "event"
    },
    {
      "anonymous": false,
      "inputs": [
        {
          "indexed": true,
          "internalType": "address",
          "name": "from",
          "type": "address"
        },
        {
          "indexed": true,
          "internalType": "address",
          "name": "to",
          "type": "address"
        },
        {
          "indexed": true,
          "internalType": "uint256",
          "name": "id",
          "type": "uint256"
        }
      ],
      "name": "Transfer",
      "type": "event"
    },
    {
      "inputs": [],
      "name": "_baseURI",
      "outputs": [
        {
          "internalType": "string",
          "name": "",
          "type": "string"
        }
      ],
      "stateMutability": "pure",
      "type": "function"
    },
    {
      "inputs": [
        {
          "internalType": "address",
          "name": "spender",
          "type": "address"
        },
        {
          "internalType": "uint256",
          "name": "id",
          "type": "uint256"
        }
      ],
      "name": "approve",
      "outputs": [],
      "stateMutability": "nonpayable",
      "type": "function"
    },
    {
      "inputs": [
        {
          "internalType": "address",
          "name": "owner",
          "type": "address"
        }
      ],
      "name": "balanceOf",
      "outputs": [
        {
          "internalType": "uint256",
          "name": "",
          "type": "uint256"
        }
      ],
      "stateMutability": "view",
      "type": "function"
    },
    {
      "inputs": [
        {
          "internalType": "uint256",
          "name": "id",
          "type": "uint256"
        }
      ],
      "name": "burn",
      "outputs": [],
      "stateMutability": "nonpayable",
      "type": "function"
    },
    {
      "inputs": [
        {
          "internalType": "uint256",
          "name": "id",
          "type": "uint256"
        }
      ],
      "name": "getApproved",
      "outputs": [
        {
          "internalType": "address",
          "name": "",
          "type": "address"
        }
      ],
      "stateMutability": "view",
      "type": "function"
    },
    {
      "inputs": [
        {
          "internalType": "address",
          "name": "",
          "type": "address"
        },
        {
          "internalType": "address",
          "name": "",
          "type": "address"
        }
      ],
      "name": "isApprovedForAll",
      "outputs": [
        {
          "internalType": "bool",
          "name": "",
          "type": "bool"
        }
      ],
      "stateMutability": "view",
      "type": "function"
    },
    {
      "inputs": [
        {
          "internalType": "address",
          "name": "to",
          "type": "address"
        },
        {
          "internalType": "uint256",
          "name": "id",
          "type": "uint256"
        }
      ],
      "name": "mint",
      "outputs": [],
      "stateMutability": "nonpayable",
      "type": "function"
    },
    {
      "inputs": [],
      "name": "name",
      "outputs": [
        {
          "internalType": "string",
          "name": "",
          "type": "string"
        }
      ],
      "stateMutability": "pure",
      "type": "function"
    },
    {
      "inputs": [
        {
          "internalType": "uint256",
          "name": "id",
          "type": "uint256"
        }
      ],
      "name": "ownerOf",
      "outputs": [
        {
          "internalType": "address",
          "name": "owner",
          "type": "address"
        }
      ],
      "stateMutability": "view",
      "type": "function"
    },
    {
      "inputs": [
        {
          "internalType": "address",
          "name": "from",
          "type": "address"
        },
        {
          "internalType": "address",
          "name": "to",
          "type": "address"
        },
        {
          "internalType": "uint256",
          "name": "id",
          "type": "uint256"
        }
      ],
      "name": "safeTransferFrom",
      "outputs": [],
      "stateMutability": "nonpayable",
      "type": "function"
    },
    {
      "inputs": [
        {
          "internalType": "address",
          "name": "from",
          "type": "address"
        },
        {
          "internalType": "address",
          "name": "to",
          "type": "address"
        },
        {
          "internalType": "uint256",
          "name": "id",
          "type": "uint256"
        },
        {
          "internalType": "bytes",
          "name": "data",
          "type": "bytes"
        }
      ],
      "name": "safeTransferFrom",
      "outputs": [],
      "stateMutability": "nonpayable",
      "type": "function"
    },
    {
      "inputs": [
        {
          "internalType": "address",
          "name": "operator",
          "type": "address"
        },
        {
          "internalType": "bool",
          "name": "approved",
          "type": "bool"
        }
      ],
      "name": "setApprovalForAll",
      "outputs": [],
      "stateMutability": "nonpayable",
      "type": "function"
    },
    {
      "inputs": [
        {
          "internalType": "bytes4",
          "name": "interfaceId",
          "type": "bytes4"
        }
      ],
      "name": "supportsInterface",
      "outputs": [
        {
          "internalType": "bool",
          "name": "",
          "type": "bool"
        }
      ],
      "stateMutability": "pure",
      "type": "function"
    },
    {
      "inputs": [],
      "name": "symbol",
      "outputs": [
        {
          "internalType": "string",
          "name": "",
          "type": "string"
        }
      ],
      "stateMutability": "pure",
      "type": "function"
    },
    {
      "inputs": [
        {
          "internalType": "uint256",
          "name": "tokenId",
          "type": "uint256"
        }
      ],
      "name": "tokenURI",
      "outputs": [
        {
          "internalType": "string",
          "name": "",
          "type": "string"
        }
      ],
      "stateMutability": "pure",
      "type": "function"
    },
    {
      "inputs": [
        {
          "internalType": "address",
          "name": "from",
          "type": "address"
        },
        {
          "internalType": "address",
          "name": "to",
          "type": "address"
        },
        {
          "internalType": "uint256",
          "name": "id",
          "type": "uint256"
        }
      ],
      "name": "transferFrom",
      "outputs": [],
      "stateMutability": "nonpayable",
      "type": "function"
    }
  ],
  "bytecode": {
    "object": "0x608060405234801561001057600080fd5b50611066806100206000396000f3fe608060405234801561001057600080fd5b50600436106101005760003560e01c80636352211e11610097578063a22cb46511610066578063a22cb4651461026a578063b88d4fde1461027d578063c87b56dd14610290578063e985e9c5146102a357600080fd5b80636352211e146101e757806370a08231146101fa578063743976a01461021b57806395d89b411461024c57600080fd5b806323b872dd116100d357806323b872dd1461019b57806340c10f19146101ae57806342842e0e146101c157806342966c68146101d457600080fd5b806301ffc9a71461010557806306fdde031461012d578063081812fc1461015b578063095ea7b314610186575b600080fd5b610118610113366004610cd3565b6102d1565b60405190151581526020015b60405180910390f35b604080518082019091526009815268135e541c9bd91d58dd60ba1b60208201525b6040516101249190610d1b565b61016e610169366004610d4e565b610308565b6040516001600160a01b039091168152602001610124565b610199610194366004610d7e565b610383565b005b6101996101a9366004610da8565b610465565b6101996101bc366004610d7e565b61061b565b6101996101cf366004610da8565b610629565b6101996101e2366004610d4e565b610721565b61016e6101f5366004610d4e565b61077f565b61020d610208366004610de4565b6107df565b604051908152602001610124565b60408051808201909152601581527468747470733a2f2f697066732e696f2f697066732f60581b602082015261014e565b60408051808201909152600281526104d560f41b602082015261014e565b610199610278366004610dff565b61084a565b61019961028b366004610e3b565b6108b6565b61014e61029e366004610d4e565b61099e565b6101186102b1366004610ed6565b600360209081526000928352604080842090915290825290205460ff1681565b60006001600160e01b031982166380ac58cd60e01b148061030257506001600160e01b031982166301ffc9a760e01b145b92915050565b6000818152602081905260408120546001600160a01b03166103675760405162461bcd60e51b81526020600482015260136024820152721d1bdad95b88191bd95cdb89dd08195e1a5cdd606a1b60448201526064015b60405180910390fd5b506000908152600260205260409020546001600160a01b031690565b6000818152602081905260409020546001600160a01b0316338114806103cc57506001600160a01b038116600090815260036020908152604080832033845290915290205460ff165b6104095760405162461bcd60e51b815260206004820152600e60248201526d1b9bdd08185d5d1a1bdc9a5e995960921b604482015260640161035e565b60008281526002602052604080822080546001600160a01b0319166001600160a01b0387811691821790925591518593918516917f8c5be1e5ebec7d5bd14f71427d1e84f3dd0314c0f7b2291e5b200ac8c7c3b92591a4505050565b6000818152602081905260409020546001600160a01b038481169116146104be5760405162461bcd60e51b815260206004820152600d60248201526c333937b690109e9037bbb732b960991b604482015260640161035e565b6001600160a01b0382166105145760405162461bcd60e51b815260206004820152601860248201527f7472616e7366657220746f207a65726f20616464726573730000000000000000604482015260640161035e565b61051f833383610a3b565b61055c5760405162461bcd60e51b815260206004820152600e60248201526d1b9bdd08185d5d1a1bdc9a5e995960921b604482015260640161035e565b6001600160a01b038316600090815260016020526040812080549161058083610f1f565b90915550506001600160a01b03821660009081526001602052604081208054916105a983610f36565b909155505060008181526020818152604080832080546001600160a01b038088166001600160a01b031992831681179093556002909452828520805490911690559051849391928716917fddf252ad1be2c89b69c2b068fc378daa952ba7f163c4a11628f55a4df523b3ef91a4505050565b6106258282610aae565b5050565b610634838383610465565b6001600160a01b0382163b15806106dd5750604051630a85bd0160e11b8082523360048301526001600160a01b03858116602484015260448301849052608060648401526000608484015290919084169063150b7a029060a4016020604051808303816000875af11580156106ad573d6000803e3d6000fd5b505050506040513d601f19601f820116820180604052508101906106d19190610f4f565b6001600160e01b031916145b61071c5760405162461bcd60e51b815260206004820152601060248201526f1d5b9cd85999481c9958da5c1a595b9d60821b604482015260640161035e565b505050565b6000818152602081905260409020546001600160a01b031633146107735760405162461bcd60e51b81526020600482015260096024820152683737ba1037bbb732b960b91b604482015260640161035e565b61077c81610bd3565b50565b6000818152602081905260409020546001600160a01b0316806107da5760405162461bcd60e51b81526020600482015260136024820152721d1bdad95b88191bd95cdb89dd08195e1a5cdd606a1b604482015260640161035e565b919050565b60006001600160a01b03821661082e5760405162461bcd60e51b81526020600482015260146024820152736f776e6572203d207a65726f206164647265737360601b604482015260640161035e565b506001600160a01b031660009081526001602052604090205490565b3360008181526003602090815260408083206001600160a01b03871680855290835292819020805460ff191686151590811790915590519081529192917f17307eab39ab6107e8899845ad3d59bd9653f200f220920489ca2b5937696c31910160405180910390a35050565b6108c1858585610465565b6001600160a01b0384163b15806109585750604051630a85bd0160e11b808252906001600160a01b0386169063150b7a02906109099033908a90899089908990600401610f6c565b6020604051808303816000875af1158015610928573d6000803e3d6000fd5b505050506040513d601f19601f8201168201806040525081019061094c9190610f4f565b6001600160e01b031916145b6109975760405162461bcd60e51b815260206004820152601060248201526f1d5b9cd85999481c9958da5c1a595b9d60821b604482015260640161035e565b5050505050565b60608082600103610a1f576040518060600160405280602e8152602001611003602e913990506109f660408051808201909152601581527468747470733a2f2f697066732e696f2f697066732f60581b602082015290565b81604051602001610a08929190610fc0565b604051602081830303815290604052915050919050565b604051638a00f33960e01b81526004810184905260240161035e565b6000836001600160a01b0316836001600160a01b03161480610a8257506001600160a01b0380851660009081526003602090815260408083209387168352929052205460ff165b80610aa657506000828152600260205260409020546001600160a01b038481169116145b949350505050565b6001600160a01b038216610afb5760405162461bcd60e51b81526020600482015260146024820152736d696e7420746f207a65726f206164647265737360601b604482015260640161035e565b6000818152602081905260409020546001600160a01b031615610b515760405162461bcd60e51b815260206004820152600e60248201526d185b1c9958591e481b5a5b9d195960921b604482015260640161035e565b6001600160a01b0382166000908152600160205260408120805491610b7583610f36565b909155505060008181526020819052604080822080546001600160a01b0319166001600160a01b03861690811790915590518392907fddf252ad1be2c89b69c2b068fc378daa952ba7f163c4a11628f55a4df523b3ef908290a45050565b6000818152602081905260409020546001600160a01b031680610c255760405162461bcd60e51b815260206004820152600a6024820152691b9bdd081b5a5b9d195960b21b604482015260640161035e565b6001600160a01b03811660009081526001602081905260408220805491929091610c50908490610fef565b909155505060008281526020818152604080832080546001600160a01b031990811690915560029092528083208054909216909155518391906001600160a01b038416907fddf252ad1be2c89b69c2b068fc378daa952ba7f163c4a11628f55a4df523b3ef908390a45050565b6001600160e01b03198116811461077c57600080fd5b600060208284031215610ce557600080fd5b8135610cf081610cbd565b9392505050565b60005b83811015610d12578181015183820152602001610cfa565b50506000910152565b6020815260008251806020840152610d3a816040850160208701610cf7565b601f01601f19169190910160400192915050565b600060208284031215610d6057600080fd5b5035919050565b80356001600160a01b03811681146107da57600080fd5b60008060408385031215610d9157600080fd5b610d9a83610d67565b946020939093013593505050565b600080600060608486031215610dbd57600080fd5b610dc684610d67565b9250610dd460208501610d67565b9150604084013590509250925092565b600060208284031215610df657600080fd5b610cf082610d67565b60008060408385031215610e1257600080fd5b610e1b83610d67565b915060208301358015158114610e3057600080fd5b809150509250929050565b600080600080600060808688031215610e5357600080fd5b610e5c86610d67565b9450610e6a60208701610d67565b935060408601359250606086013567ffffffffffffffff80821115610e8e57600080fd5b818801915088601f830112610ea257600080fd5b813581811115610eb157600080fd5b896020828501011115610ec357600080fd5b9699959850939650602001949392505050565b60008060408385031215610ee957600080fd5b610ef283610d67565b9150610f0060208401610d67565b90509250929050565b634e487b7160e01b600052601160045260246000fd5b600081610f2e57610f2e610f09565b506000190190565b600060018201610f4857610f48610f09565b5060010190565b600060208284031215610f6157600080fd5b8151610cf081610cbd565b6001600160a01b038681168252851660208201526040810184905260806060820181905281018290526000828460a0840137600060a0848401015260a0601f19601f85011683010190509695505050505050565b60008351610fd2818460208801610cf7565b835190830190610fe6818360208801610cf7565b01949350505050565b8181038181111561030257610302610f0956fe516d615a534d53517972443666365a41415a33755574483238614e554b72383166756d546e366d6f66334d56647aa2646970667358221220577da34738607000b2a5be714bab15af00130156f6d49ac7f99780d1902b423464736f6c63430008160033",
    "linkReferences": {}
  },
  "methodIdentifiers": {
    "_baseURI()": "743976a0",
    "approve(address,uint256)": "095ea7b3",
    "balanceOf(address)": "70a08231",
    "burn(uint256)": "42966c68",
    "getApproved(uint256)": "081812fc",
    "isApprovedForAll(address,address)": "e985e9c5",
    "mint(address,uint256)": "40c10f19",
    "name()": "06fdde03",
    "ownerOf(uint256)": "6352211e",
    "safeTransferFrom(address,address,uint256)": "42842e0e",
    "safeTransferFrom(address,address,uint256,bytes)": "b88d4fde",
    "setApprovalForAll(address,bool)": "a22cb465",
    "supportsInterface(bytes4)": "01ffc9a7",
    "symbol()": "95d89b41",
    "tokenURI(uint256)": "c87b56dd",
    "transferFrom(address,address,uint256)": "23b872dd"
  },
  "id": 29
}